:020000040800F2
:1000000000280020AD1300086112000867120008E4
:100010006D12000873120008791200080000000039
:100020000000000000000000000000007F12000837
:100030008B1200080000000097120008A3120008AD
:10004000F5130008F5130008F5130008F513000870
:10005000F5130008F5130008F5130008F513000860
:10006000F5130008F5130008F5130008F513000850
:10007000F5130008F5130008F5130008F513000840
:10008000F5130008F5130008F5130008F513000830
:10009000F5130008F5130008F5130008F513000820
:1000A000F5130008F5130008F5130008F513000810
:1000B000B1120008F513000800000000F513000855
:1000C000F51300080000000000000000F513000810
:1000D00000000000F5130008F51300080000000000
:1000E000F5130008F5130008F513000800000000E0
:1000F0000000000000000000000000000000000000
:0C01000000000000000000005FF808F1A3
:10010C0010B5054C237833B9044B13B10448AFF345
:10011C0000800123237010BD94000020000000001B
:10012C00242A000808B5034B1BB103490348AFF35D
:10013C00008008BD0000000098000020242A000860
:10014C0080B483B000AF7860094A7B6852F82330E2
:10015C00012B06D1064A7B68002142F823100123AB
:10016C0000E0002318460C37BD4680BC704700BF2A
:10017C00B000002080B483B000AF7860044A7B6884
:10018C00012142F8231000BF0C37BD4680BC7047DC
:10019C00B000002080B582B000AF01237B6082E00C
:1001AC00454A7B681B01134404331A6842497B6837
:1001BC001B010B441A60404A7B681B011344083333
:1001CC001A683D497B681B010B4404331A603B4A97
:1001DC007B6852F823301846394A7B6852F8233032
:1001EC009BB2194601F0ECFB03461946324A7B6878
:1001FC001B011344083319602F4A7B681B011344FD
:10020C001A682D497B681B010B4404331B689A4206
:10021C0046D1294A7B681B01134404331A682649CA
:10022C007B681B010B4408331B689A4238D1224A65
:10023C007B681B0113440C331A681F497B681B0134
:10024C000B4408331B689A421AD01B4A7B681B016B
:10025C00134408331A6818497B681B010B440C3390
:10026C001A60154A7B681B01134408331B68002B6A
:10027C0016D17868FFF77EFF124B64221A600FE0EC
:10028C00104B1B68013B0F4A13600E4B1B68002B75
:10029C0006D1094A7B681B0113440C3301221A60F6
:1002AC007B6801337B607B68032B7FF779AF00BFE2
:1002BC0000BF0837BD4680BD000000204400002070
:1002CC00540000204000002080B500AFBA4B1B68E2
:1002DC00013B092B00F2E88101A252F823F000BF88
:1002EC003F0300087D03000829040008F7040008F8
:1002FC00E9050008B5060008B5060008B5060008B3
:10030C00B50600081503000801220121012000F0A8
:10031C00EDFF01220121012001F00AF80120FFF775
:10032C000FFF0346002B00F0C181A34B01221A6082
:10033C00BCE1A24B1B68A24A12681146184600F099
:10034C00C1FF9F4B1B684FF47A7202FB03F31946F3
:10035C00002000F0DBFE4FF47A71012000F0D6FE95
:10036C00FA21022000F0D2FE934B02221A60A6E181
:10037C0000220021012000F0B9FF00220121002001
:10038C0000F0D6FF8F4B1B68012B14D18E4B1B68D2
:10039C008D4A12681146184600F094FF8A4B1B6870
:1003AC004FF47A7202FB03F31946002000F0AEFE04
:1003BC00814B03221A60834B5B68012B06D100F042
:1003CC00DBFF4FF47A71012000F0A0FE0120FFF753
:1003DC00B7FE0346002B00F06B81002200210020A9
:1003EC0000F084FF00220021002000F0A1FF4FF458
:1003FC00FA71032000F08AFE4CF25031042000F018
:10040C0085FE724B00221A60714B00221A60714BF0
:10041C0000221A60684B06221A6049E10022002172
:10042C00012000F063FF01220021002000F080FF7A
:10043C00644B1B68012B14D1614B1B685F4A12681B
:10044C001146184600F03EFF5D4B1B684FF47A7264
:10045C0002FB03F31946002000F058FE564B042211
:10046C001A60584B5B68012B17D100F0FBFC5A4B00
:10047C001B685A1C58490A60184600F05DFC564B24
:10048C001B68032B02DD544B00221A6000F074FF32
:10049C004FF47A71012000F039FE0120FFF750FE75
:1004AC000346002B00F0068100220021002000F002
:1004BC001DFF00220021002000F03AFF4FF4FA71DA
:1004CC00032000F023FE42F21071042000F01EFE07
:1004DC003E4B00221A603E4B00221A603D4B00221C
:1004EC001A60354B06221A60E4E00022012100203C
:1004FC0000F0FCFE00220021012000F019FF314B1E
:10050C001B68012B14D1304B1B682F4A1268114603
:10051C00184600F0D7FE2C4B1B684FF47A7202FB86
:10052C0003F31946002000F0F1FD234B05221A605D
:10053C00244B5B68012B17D100F094FC264B1B68F5
:10054C005A1C25490A60184600F0F6FB224B1B6822
:10055C00032B02DD204B00221A6000F00DFF4FF43C
:10056C007A71012000F0D2FD0120FFF7E9FD03466E
:10057C00002B00F0A18000220021002000F0B6FE2C
:10058C0000220021002000F0D3FE4FF4FA7103206A
:10059C0000F0BCFD42F21071042000F0B7FD0B4BD3
:1005AC0000221A600A4B00221A600A4B00221A60C1
:1005BC00014B06221A607FE06400002068000020D6
:1005CC006C0000202001002070000020C4000020DE
:1005DC00CC000020C8000020C00000200122002117
:1005EC00002000F083FE00220021012000F0A0FE7C
:1005FC00404B1B68012B14D13F4B1B683F4A1268C0
:10060C001146184600F05EFE3B4B1B684FF47A72A5
:10061C0002FB03F31946002000F078FD384B022250
:10062C001A60344B5B68012B17D100F01BFC354B67
:10063C001B685A1C33490A60184600F07DFB314B8D
:10064C001B68032B02DD2F4B00221A6000F094FE76
:10065C004FF47A71012000F059FD0120FFF770FD75
:10066C000346002B2AD000220021002000F03EFE81
:10067C0000220021002000F05BFE4FF4FA710320F1
:10068C0000F044FD42F21071042000F03FFD1E4BBF
:10069C0000221A601D4B00221A601D4B00221A60AA
:1006AC00174B06221A6009E000BF08E000BF06E005
:1006BC0000BF04E000BF02E000BF00E000BF0D4B34
:1006CC009B68012B14D100F0CDFB0E4B1B685A1C00
:1006DC000C490A60184600F02FFB0A4B1B68032BD1
:1006EC0002DD084B00221A60FA21022000F00EFDF8
:1006FC0000BF80BD20010020680000206C0000209D
:10070C0064000020C0000020C4000020CC000020A9
:10071C00C800002080B500AFB74B1B68082B00F059
:10072C00EF80082B00F35F81062B02D0072B73D0D0
:10073C0059E1B24B1B680221184600F0C3FDB04BC7
:10074C00DB68012B0CD11021AE4801F068F9802137
:10075C00AC4801F064F94FF4FA71032000F0D6FCB8
:10076C00A74B1B69012B02D1A34B01221A6001205C
:10077C00FFF7E6FC0346002B16D0002200210020D8
:10078C0000F0B4FD00220021002000F0D1FD4FF458
:10079C00FA71032000F0BAFC974B07221A6042F260
:1007AC001071042000F0B2FC0220FFF7C9FC0346D4
:1007BC00002B11D0914B1B680133904A13608F4B67
:1007CC001B68632B03DD904B1B688C4A136042F251
:1007DC001071042000F09AFC0320FFF7B1FC0346D3
:1007EC00002B00F00281854B1B68874A1360864BF7
:1007FC001A68864B1B68D31A854A136000220021A5
:10080C00002000F073FD00220021002000F090FD7C
:10081C00794B07221A60E8E07E4B1B6803211846CF
:10082C0000F050FD764BDB68012B0DD12021754873
:10083C0001F0F5F84FF48071724801F0F0F84FF4C4
:10084C00FA71032000F062FC6D4B1B69012B02D185
:10085C00694B01221A600120FFF772FC0346002B42
:10086C0016D000220021002000F040FD00220021C3
:10087C00002000F05DFD4FF4FA71032000F046FCFF
:10088C005D4B08221A6042F21071042000F03EFC0D
:10089C000220FFF755FC0346002B11D05D4B1B6863
:1008AC0001335C4A13605B4B1B68632B03DD574BB6
:1008BC001B68584A136042F21071042000F026FCA9
:1008CC000320FFF73DFC0346002B00F09080514BBA
:1008DC001B684E4A13604E4B1A684C4B1B681344F2
:1008EC00494A1360444B08221A6000220021002060
:1008FC0000F0FCFC00220021002000F019FD76E045
:10090C00454B1B680421184600F0DCFC3C4BDB68B3
:10091C00012B0DD140213B4801F081F84FF40071BF
:10092C00384801F07CF84FF4FA71032000F0EEFB2C
:10093C00334B1B69012B02D12F4B01221A60012072
:10094C00FFF7FEFB0346002B16D0002200210020EF
:10095C0000F0CCFC00220021002000F0E9FC4FF458
:10096C00FA71032000F0D2FB42F21071042000F067
:10097C00CDFB214B01221A600220FFF7E1FB03465D
:10098C00002B11D0244B1B680133234A1360224BDC
:10099C001B68632B03DD1E4B1B681F4A136042F25E
:1009AC001071042000F0B2FB0320FFF7C9FB0346D3
:1009BC00002B1ED0184B1B68154A1360144B1A6879
:1009CC00124B1B681344104A13600B4B01221A6024
:1009DC0000220021002000F089FC002200210020D0
:1009EC0000F0A6FC05E000BF04E000BF02E000BF81
:1009FC0000E000BF00BF80BD64000020C4000020E8
:100A0C002001002000080140680000207000002038
:100A1C006C000020C8000020CC00002080B582B003
:100A2C0000AF78607B68092B00F2808101A252F83C
:100A3C0023F000BF690A0008B10A0008F90A00088F
:100A4C00410B0008890B0008D10B0008190C000899
:100A5C00610C0008A90C0008F10C0008002201210F
:100A6C00B44800F0C4FF00220221B24800F0BFFFDE
:100A7C0000220421AF4800F0BAFF00220821AD4843
:100A8C0000F0B5FF00221021AA4800F0B0FF0022B0
:100A9C002021A84800F0ABFF01224021A54800F01E
:100AAC00A6FF43E101220121A24800F0A0FF002291
:100ABC000221A04800F09BFF002204219D4800F079
:100ACC0096FF012208219B4800F091FF0122102182
:100ADC00984800F08CFF01222021964800F087FFF7
:100AEC0001224021934800F082FF1FE100220121E6
:100AFC00904800F07CFF002202218E4800F077FF26
:100B0C00012204218B4800F072FF00220821894841
:100B1C0000F06DFF00221021864800F068FF0122D2
:100B2C002021844800F063FF00224021814800F01E
:100B3C005EFFFBE0002201217E4800F058FF0022FE
:100B4C0002217C4800F053FF00220421794800F078
:100B5C004EFF00220821774800F049FF01221021A6
:100B6C00744800F044FF01222021724800F03FFF3E
:100B7C00002240216F4800F03AFFD7E0012201210A
:100B8C006C4800F034FF002202216A4800F02FFF6D
:100B9C0000220421674800F02AFF01220821654841
:100BAC0000F025FF01221021624800F020FF0022F6
:100BBC002021604800F01BFF002240215D4800F01E
:100BCC0016FFB3E0002201215A4800F010FF012269
:100BDC000221584800F00BFF00220421554800F078
:100BEC0006FF00220821534800F001FF01221021CA
:100BFC00504800F0FCFE002220214E4800F0F7FE89
:100C0C00002240214B4800F0F2FE8FE0002201212F
:100C1C00484800F0ECFE01220221464800F0E7FEB5
:100C2C0000220421434800F0E2FE00220821414842
:100C3C0000F0DDFE002210213E4800F0D8FE00221C
:100C4C0020213C4800F0D3FE00224021394800F01E
:100C5C00CEFE6BE000220121364800F0C8FE0022D7
:100C6C000221344800F0C3FE00220421314800F078
:100C7C00BEFE012208212F4800F0B9FE01221021EE
:100C8C002C4800F0B4FE012220212A4800F0AFFECF
:100C9C0001224021274800F0AAFE47E00022012152
:100CAC00244800F0A4FE00220221224800F09FFEFE
:100CBC00002204211F4800F09AFE002208211D4842
:100CCC0000F095FE002210211A4800F090FE002240
:100CDC002021184800F08BFE00224021154800F01E
:100CEC0086FE23E000220121124800F080FE002243
:100CFC000221104800F07BFE002204210D4800F078
:100D0C0076FE002208210B4800F071FE0122102112
:100D1C00084800F06CFE00222021064800F067FE17
:100D2C0000224021034800F062FE00BF00BF0837DC
:100D3C00BD4680BD000C014080B582B000AF78602C
:100D4C007B68032B00F2848001A252F823F000BFD1
:100D5C006D0D0008A90D0008E50D0008210E000816
:100D6C0000224FF480613D4800F041FE01224FF417
:100D7C0000613A4800F03BFE01224FF480513748A5
:100D8C0000F035FE01224FF40051344800F02FFEE4
:100D9C00334B1B681846FFF741FE5AE001224FF413
:100DAC0080612E4800F023FE00224FF400612B4896
:100DBC0000F01DFE01224FF48051284800F017FE70
:100DCC0001224FF40051254800F011FE244B5B68C2
:100DDC001846FFF723FE3CE001224FF480611F48C8
:100DEC0000F005FE01224FF400611C4800F0FFFDED
:100DFC0000224FF48051194800F0F9FD01224FF404
:100E0C000051164800F0F3FD154B9B681846FFF790
:100E1C0005FE1EE001224FF48061104800F0E7FD52
:100E2C0001224FF400610D4800F0E1FD01224FF466
:100E3C0080510A4800F0DBFD00224FF400510748B6
:100E4C0000F0D5FD064BDB681846FFF7E7FD00E028
:100E5C0000BF00BF0837BD4680BD00BF0008014081
:100E6C007400002080B400AF1A4B1B681A4A82FB36
:100E7C0003129210DB17D31A184A1360154B19681A
:100E8C00154B83FB01239A10CB17D21A13469B00E8
:100E9C0013445B00CA1A114B5A60114B1B680E4A63
:100EAC0082FB03129210DB17D31A0C4A93600C4B83
:100EBC001968094B83FB01239A10CB17D21A1346DE
:100ECC009B0013445B00CA1A044BDA6000BFBD469A
:100EDC0080BC7047D00000206766666674000020F6
:100EEC00D400002080B500AF00F080FA00F014F8B8
:100EFC0000F09AF800F04CF8054801F0D5F9054BD4
:100F0C000A221A60FFF7E0F9FFF704FCFAE700BFCA
:100F1C00D80000206400002080B590B000AF07F12D
:100F2C00180328220021184601F06EFD3B1D0022FB
:100F3C001A605A609A60DA601A610223BB6101235D
:100F4C00BB621023FB6200237B6307F11803184676
:100F5C0000F07EFD0346002B01D000F0D1F80F23EA
:100F6C007B600023BB600023FB6000233B610023FC
:100F7C007B613B1D0021184600F0EAFF0346002B65
:100F8C0001D000F0BDF800BF4037BD4680BD000069
:100F9C0080B586B000AF07F1080300221A605A60D2
:100FAC009A60DA603B4600221A605A601D4B4FF083
:100FBC0080421A601B4B41F63F725A60194B00225B
:100FCC009A60184B0922DA60164B00221A61154BF5
:100FDC0000229A61134801F017F90346002B01D047
:100FEC0000F08EF84FF48053BB6007F108031946EC
:100FFC000C4801F095FA0346002B01D000F080F864
:10100C0000233B6000237B603B461946054801F0FA
:10101C006DFC0346002B01D000F072F800BF1837AE
:10102C00BD4680BDD800002080B586B000AF07F16A
:10103C00080300221A605A609A60DA60274B9B6999
:10104C00264A43F004039361244B9B6903F0040389
:10105C007B607B68214B9B69204A43F008039361BA
:10106C001E4B9B6903F008033B603B68002243F670
:10107C00F0711B4800F0BBFC00227F21194800F0E6
:10108C00B6FC0E23BB600023FB6001233B6107F120
:10109C0008031946124800F019FB43F6F073BB60C5
:1010AC000123FB6000233B6102237B6107F10803F2
:1010BC0019460B4800F00AFB7F23BB600123FB6041
:1010CC0000233B6102237B6107F1080319460548A5
:1010DC0000F0FCFA00BF1837BD4680BD001002407E
:1010EC0000080140000C014080B582B000AF786070
:1010FC0000F02AF8FFF74EF800BF0837BD4680BD58
:10110C0080B400AF72B600BFFEE7000080B483B0BD
:10111C0000AF78603960094A7B68002142F82310DF
:10112C00074B1B683A6892FBF3F206497B6841F85F
:10113C00232000BF0C37BD4680BC70472001002027
:10114C00840000204801002080B483B000AF00234D
:10115C007B601CE0124A7B6852F82330002B13DDB5
:10116C000F4A7B6852F823305A1E0D497B6841F8B0
:10117C0023200B4A7B6852F82330002B04DC094AED
:10118C007B68012142F823107B6801337B607B680C
:10119C00092BDFDD00BF00BF0C37BD4680BC70479C
:1011AC00480100202001002080B485B000AF154B11
:1011BC009B69144A43F001039361124B9B6903F042
:1011CC000103BB60BB680F4BDB690E4A43F08053D5
:1011DC00D3610C4BDB6903F080537B607B680A4B5B
:1011EC005B68FB60FB6823F0E063FB60FB6843F02B
:1011FC008063FB60044AFB68536000BF1437BD4634
:10120C0080BC7047001002400000014080B584B0E3
:10121C0000AF78607B681B68B3F1804F13D10C4B27
:10122C00DB690B4A43F00103D361094BDB6903F023
:10123C000103FB60FB68002200211C2000F00FFA68
:10124C001C2000F028FA00BF1037BD4680BD00BF3F
:10125C000010024080B400AFFEE780B400AFFEE7A0
:10126C0080B400AFFEE780B400AFFEE780B400AFFF
:10127C00FEE780B400AF00BFBD4680BC704780B4B1
:10128C0000AF00BFBD4680BC704780B400AF00BF4C
:10129C00BD4680BC704780B500AF00F0EDF800BFD4
:1012AC0080BD000080B500AF024801F049F800BFD6
:1012BC0080BD00BFD800002080B400AF00BFBD4689
:1012CC0080BC704780B483B000AF78603960054A49
:1012DC007B681360044A3B68136000BF0C37BD4643
:1012EC0080BC7047D0000020D400002080B584B0B2
:1012FC0000AFF860B9607A60FB68DBB21A46102167
:10130C000A4800F074FBBB68DBB21A464021074860
:10131C0000F06DFB7B68DBB21A462021034800F01D
:10132C0066FB00BF1037BD4680BD00BF0008014002
:10133C0080B584B000AFF860B9607A60FB68DBB24E
:10134C001A4680210B4800F052FBBB68DBB21A46F0
:10135C004FF40071074800F04AFB7B68DBB21A4679
:10136C004FF48071034800F042FB00BF1037BD46BC
:10137C0080BD00BF0008014080B400AF064B1B6865
:10138C00013B054A1360054B1B68013B034A136084
:10139C0000BFBD4680BC7047D0000020D4000020A8
:1013AC00FFF78AFF0B480C490C4A002302E0D45883
:1013BC00C4500433C4188C42F9D3094A094C002395
:1013CC0001E013600432A242FBD301F0F9FAFFF7FB
:1013DC0089FD70470000002094000020682A000856
:1013EC009400002074010020FEE7000080B500AFDF
:1013FC00084B1B68074A43F010031360032000F0EE
:10140C0023F90F2000F008F8FFF7CEFE0023184652
:10141C0080BD00BF0020024080B582B000AF786074
:10142C00124B1A68124B1B7819464FF47A73B3FBA4
:10143C00F1F3B2FBF3F3184600F03BF90346002B33
:10144C0001D001230EE07B680F2B0AD800227968AB
:10145C004FF0FF3000F003F9064A7B68136000235D
:10146C0000E0012318460837BD4680BD88000020E7
:10147C00900000208C00002080B400AF054B1B783E
:10148C001A46054B1B681344034A136000BFBD4644
:10149C0080BC7047900000207001002080B400AF29
:1014AC00024B1B681846BD4680BC7047700100207B
:1014BC0080B485B000AF78607B6803F00703FB60F5
:1014CC000C4BDB68BB60BA684FF6FF031340BB6084
:1014DC00FB681A02BB68134343F0BF6343F4003349
:1014EC00BB60044ABB68D36000BF1437BD4680BCE8
:1014FC00704700BF00ED00E080B400AF044BDB6828
:10150C001B0A03F007031846BD4680BC704700BF9A
:10151C0000ED00E080B483B000AF0346FB7197F997
:10152C000730002B0BDBFB7903F01F02064997F900
:10153C0007305B09012000FA02F241F8232000BFBA
:10154C000C37BD4680BC704700E100E080B483B02E
:10155C0000AF03463960FB7197F90730002B0ADBAB
:10156C003B68DAB20C4997F907301201D2B20B443E
:10157C0083F800230AE03B68DAB20849FB7903F0F0
:10158C000F03043B1201D2B20B441A7600BF0C3786
:10159C00BD4680BC704700BF00E100E000ED00E0FC
:1015AC0080B489B000AFF860B9607A60FB6803F072
:1015BC000703FB61FB69C3F10703042B28BF04235A
:1015CC00BB61FB690433062B02D9FB69033B00E0CA
:1015DC0000237B614FF0FF32BB6902FA03F3DA435D
:1015EC00BB681A407B699A404FF0FF317B6901FA66
:1015FC0003F3D9437B680B40134318462437BD468D
:10160C0080BC704780B582B000AF78607B68013BCE
:10161C00B3F1807F01D301230FE00A4A7B68013BC1
:10162C0053600F214FF0FF30FFF790FF054B002266
:10163C009A60044B07221A60002318460837BD46EF
:10164C0080BD00BF10E000E080B582B000AF7860D4
:10165C007868FFF72DFF00BF0837BD4680BD80B509
:10166C0086B000AF0346B9607A60FB7300237B61E0
:10167C00FFF742FF78617A68B9687869FFF790FFE5
:10168C00024697F90F3011461846FFF75FFF00BF6F
:10169C001837BD4680BD80B582B000AF0346FB71E4
:1016AC0097F907301846FFF735FF00BF0837BD46DE
:1016BC0080BD80B582B000AF78607868FFF7A2FF7C
:1016CC00034618460837BD4680BD000080B48BB079
:1016DC0000AF7860396000237B6200233B6248E1F5
:1016EC0001227B6A02FA03F3FB613B681B68FA690F
:1016FC001340BB61BA69FB699A4240F037813B6881
:10170C005B68A34A93425ED0A14A934275D8A14A22
:10171C00934258D09F4A93426FD89F4A934252D0DB
:10172C009D4A934269D89D4A93424CD09B4A93421E
:10173C0063D89B4A934246D0994A93425DD8122B68
:10174C002AD8122B59D801A252F823F0D31700082B
:10175C00AD170008BF17000801180008071800088B
:10176C0007180008071800080718000807180008D1
:10177C0007180008071800080718000807180008C1
:10178C0007180008071800080718000807180008B1
:10179C00B5170008C9170008824A934213D02CE0F1
:1017AC003B68DB683B6229E03B68DB6804333B62E7
:1017BC0024E03B68DB6808333B621FE03B68DB6876
:1017CC000C333B621AE03B689B68002B02D104236C
:1017DC003B6213E03B689B68012B05D108233B62FD
:1017EC007B68FA691A6109E008233B627B68FA6935
:1017FC005A6103E000233B6200E000BFBB69FF2B92
:10180C0001D87B6801E07B6804337B61BB69FF2BEB
:10181C0002D87B6A9B0002E07B6A083B9B003B6121
:10182C007B691A680F213B6901FA03F3DB431A4009
:10183C00396A3B6901FA03F31A437B691A603B6806
:10184C005B6803F08053002B00F09080564B9B6933
:10185C00554A43F001039361534B9B6903F0010319
:10186C00BB60BB68514A7B6A9B08023352F8233039
:10187C00FB607B6A03F003039B000F2202FA03F365
:10188C00DB43FA681340FB607B68494A93420DD0F6
:10189C007B68484A934207D07B68474A934201D100
:1018AC00022304E0032302E0012300E000237A6A10
:1018BC0002F0030292009340FA681343FB603B4929
:1018CC007B6A9B080233FA6841F823203B685B680B
:1018DC0003F48013002B06D0384B9A683749BB6948
:1018EC0013438B6006E0354B9A68BB69DB43334985
:1018FC0013408B603B685B6803F40013002B06D02D
:10190C002E4BDA682D49BB691343CB6006E02B4B99
:10191C00DA68BB69DB4329491340CB603B685B68E1
:10192C0003F40033002B06D0244B5A682349BB69BF
:10193C0013434B6006E0214B5A68BB69DB431F49DC
:10194C0013404B603B685B6803F48033002B06D07C
:10195C001A4B1A681949BB6913430B6006E0174B05
:10196C001A68BB69DB43154913400B607B6A013372
:10197C007B623B681A687B6A22FA03F3002B7FF4C4
:10198C00AFAE00BF00BF2C37BD4680BC704700BF58
:10199C000000321000003110000022100000211055
:1019AC000000121000001110001002400000014055
:1019BC0000080140000C01400010014000040140EF
:1019CC0080B485B000AF78600B467B807B689A68EA
:1019DC007B881340002B02D00123FB7301E0002312
:1019EC00FB73FB7B18461437BD4680BC704780B434
:1019FC0083B000AF78600B467B8013467B707B789E
:101A0C00002B03D07A887B681A6103E07B881A0468
:101A1C007B681A6100BF0C37BD4680BC704780B430
:101A2C0085B000AF78600B467B807B68DB68FB6021
:101A3C007A88FB6813401A04FB68D9437B880B40F7
:101A4C001A437B681A6100BF1437BD4680BC7047CF
:101A5C0080B586B000AF78607B68002B01D1012384
:101A6C006CE27B681B6803F00103002B00F087809D
:101A7C00924B5B6803F00C03042B0CD08F4B5B6810
:101A8C0003F00C03082B12D18C4B5B6803F48033EE
:101A9C00B3F5803F0BD1894B1B6803F40033002B4B
:101AAC006CD07B685B68002B68D1012346E27B68B5
:101ABC005B68B3F5803F06D1804B1B687F4A43F4CB
:101ACC00803313602EE07B685B68002B0CD17B4B62
:101ADC001B687A4A23F480331360784B1B68774A6F
:101AEC0023F4802313601DE07B685B68B3F5A02FA3
:101AFC000CD1724B1B68714A43F4802313606F4BFB
:101B0C001B686E4A43F4803313600BE06B4B1B680D
:101B1C006A4A23F480331360684B1B68674A23F4CA
:101B2C00802313607B685B68002B13D0FFF7B6FC37
:101B3C00386108E0FFF7B2FC02463B69D31A642B0C
:101B4C0001D90323FAE15D4B1B6803F40033002B2E
:101B5C00F0D014E0FFF7A2FC386108E0FFF79EFC20
:101B6C0002463B69D31A642B01D90323E6E1534B9C
:101B7C001B6803F40033002BF0D100E000BF7B683E
:101B8C001B6803F00203002B63D04C4B5B6803F023
:101B9C000C03002B0BD0494B5B6803F00C03082B98
:101BAC001CD1464B5B6803F48033002B16D1434B9E
:101BBC001B6803F00203002B05D07B681B69012B0B
:101BCC0001D00123BAE13D4B1B6823F0F8027B687E
:101BDC005B69DB00394913430B603AE07B681B6996
:101BEC00002B20D0364B01221A60FFF757FC3861CE
:101BFC0008E0FFF753FC02463B69D31A022B01D9CC
:101C0C0003239BE12D4B1B6803F00203002BF0D048
:101C1C002A4B1B6823F0F8027B685B69DB002749C1
:101C2C0013430B6015E0264B00221A60FFF736FCBD
:101C3C00386108E0FFF732FC02463B69D31A022BED
:101C4C0001D903237AE11D4B1B6803F00203002B1F
:101C5C00F0D17B681B6803F00803002B3AD07B683B
:101C6C009B69002B19D0174B01221A60FFF716FC49
:101C7C00386108E0FFF712FC02463B69D31A022BCD
:101C8C0001D903235AE10D4B5B6A03F00203002BCD
:101C9C00F0D0012000F09AFA1CE00A4B00221A60E6
:101CAC00FFF7FCFB38610FE0FFF7F8FB02463B69DE
:101CBC00D31A022B08D9032340E100BF00100240C5
:101CCC0000004242800442429E4B5B6A03F00203D6
:101CDC00002BE9D17B681B6803F00403002B00F098
:101CEC00A6800023FB75974BDB6903F08053002B18
:101CFC000DD1944BDB69934A43F08053D361914BE4
:101D0C00DB6903F08053BB60BB680123FB758E4B12
:101D1C001B6803F48073002B18D18B4B1B688A4A09
:101D2C0043F480731360FFF7B9FB386108E0FFF7E9
:101D3C00B5FB02463B69D31A642B01D90323FDE0A2
:101D4C00814B1B6803F48073002BF0D07B68DB683D
:101D5C00012B06D17B4B1B6A7A4A43F001031362B9
:101D6C002DE07B68DB68002B0CD1764B1B6A754A27
:101D7C0023F001031362734B1B6A724A23F00403B2
:101D8C0013621CE07B68DB68052B0CD16D4B1B6A66
:101D9C006C4A43F0040313626A4B1B6A694A43F0B2
:101DAC00010313620BE0674B1B6A664A23F00103C5
:101DBC001362644B1B6A634A23F0040313627B684F
:101DCC00DB68002B15D0FFF769FB38610AE0FFF7E1
:101DDC0065FB02463B69D31A41F28832934201D922
:101DEC000323ABE0574B1B6A03F00203002BEED02E
:101DFC0014E0FFF753FB38610AE0FFF74FFB024694
:101E0C003B69D31A41F28832934201D9032395E0FE
:101E1C004C4B1B6A03F00203002BEED1FB7D012B14
:101E2C0005D1484BDB69474A23F08053D3617B686B
:101E3C00DB69002B00F08180424B5B6803F00C03E4
:101E4C00082B61D07B68DB69022B46D13F4B00220B
:101E5C001A60FFF723FB386108E0FFF71FFB02460F
:101E6C003B69D31A022B01D9032367E0354B1B685E
:101E7C0003F00073002BF0D17B681B6AB3F5803F35
:101E8C0008D1304B5B6823F400327B689B682D498A
:101E9C0013434B602B4B5B6823F474127B68196AF9
:101EAC007B685B6A0B43274913434B60274B01222A
:101EBC001A60FFF7F3FA386108E0FFF7EFFA024611
:101ECC003B69D31A022B01D9032337E01D4B1B6846
:101EDC0003F00073002BF0D02FE01C4B00221A6093
:101EEC00FFF7DCFA386108E0FFF7D8FA02463B69E5
:101EFC00D31A022B01D9032320E0124B1B6803F0E9
:101F0C000073002BF0D118E07B68DB69012B01D149
:101F1C00012313E00B4B5B68FB60FB6803F480321E
:101F2C007B681B6A9A4206D1FB6803F470127B68CB
:101F3C005B6A9A4201D0012300E00023184618374F
:101F4C00BD4680BD0010024000700040600042425F
:101F5C0080B584B000AF786039607B68002B01D10C
:101F6C000123D0E06A4B1B6803F007033A689A42DE
:101F7C0010D9674B1B6823F0070265493B68134374
:101F8C000B60634B1B6803F007033A689A4201D05D
:101F9C000123B8E07B681B6803F00203002B20D000
:101FAC007B681B6803F00403002B05D0594B5B685E
:101FBC00584A43F4E06353607B681B6803F00803E2
:101FCC00002B05D0534B5B68524A43F4605353606B
:101FDC00504B5B6823F0F0027B689B684D491343C0
:101FEC004B607B681B6803F00103002B40D07B68BF
:101FFC005B68012B07D1474B1B6803F40033002BA4
:10200C0015D101237FE07B685B68022B07D1414B24
:10201C001B6803F00073002B09D1012373E03D4BC7
:10202C001B6803F00203002B01D101236BE0394B39
:10203C005B6823F003027B685B68364913434B6093
:10204C00FFF72CFAF8600AE0FFF728FA0246FB6863
:10205C00D31A41F28832934201D9032353E02D4B1A
:10206C005B6803F00C027B685B689B009A42EBD1C7
:10207C00274B1B6803F007033A689A4210D2244B93
:10208C001B6823F0070222493B6813430B60204B6B
:10209C001B6803F007033A689A4201D0012332E02F
:1020AC007B681B6803F00403002B08D0194B5B689A
:1020BC0023F4E0627B68DB68164913434B607B6852
:1020CC001B6803F00803002B09D0124B5B6823F448
:1020DC0060527B681B69DB000E4913434B6000F0B8
:1020EC0021F802460B4B5B681B0903F00F030A49EE
:1020FC00CB5C22FA03F3094A1360094B1B681846A0
:10210C00FFF78AF9002318461037BD4680BD00BF83
:10211C0000200240001002403C2A000888000020E9
:10212C008C00002080B487B000AF0023FB6000233C
:10213C00BB6000237B6100237B6000233B611E4B53
:10214C005B68FB60FB6803F00C03042B02D0082BCC
:10215C0003D027E0194B3B6127E0FB689B0C03F095
:10216C000F03174AD35C7B60FB6803F48033002BAE
:10217C0010D0114B5B685B0C03F00103114AD35C6C
:10218C00BB607B680D4A02FB03F2BB68B2FBF3F346
:10219C007B6104E07B680C4A02FB03F37B617B6987
:1021AC003B6102E0054B3B6100BF3B6918461C37A5
:1021BC00BD4680BC704700BF0010024000127A0080
:1021CC004C2A00085C2A000800093D0080B485B048
:1021DC0000AF78600A4B1B680A4AA2FB03235B0A18
:1021EC007A6802FB03F3FB6000BFFB685A1EFA60BF
:1021FC00002BF9D100BF00BF1437BD4680BC70471F
:10220C0088000020D34D621080B582B000AF78609A
:10221C007B68002B01D1012341E07B6893F83D30B2
:10222C00DBB2002B06D17B68002283F83C20786857
:10223C00FEF7ECFF7B68022283F83D207B681A686E
:10224C007B6804331946104600F056FA7B6801226D
:10225C0083F846207B68012283F83E207B680122AC
:10226C0083F83F207B68012283F840207B680122A1
:10227C0083F841207B68012283F842207B6801228D
:10228C0083F843207B68012283F844207B68012279
:10229C0083F845207B68012283F83D2000231846F3
:1022AC000837BD4680BD000080B485B000AF7860B3
:1022BC007B6893F83D30DBB2012B01D0012335E074
:1022CC007B68022283F83D207B681B68DA687B6898
:1022DC001B6842F00102DA607B681B68164A934265
:1022EC0009D07B681B68B3F1804F04D07B681B68F6
:1022FC00124A934211D17B681B689B6803F0070359
:10230C00FB60FB68062B10D07B681B681A687B6827
:10231C001B6842F001021A6007E07B681B681A68B0
:10232C007B681B6842F001021A60002318461437C0
:10233C00BD4680BC704700BF002C0140000400402B
:10234C0080B584B000AF78607B681B68DB68FB608D
:10235C007B681B681B69BB60BB6803F00203002B26
:10236C0020D0FB6803F00203002B1BD07B681B689A
:10237C006FF002021A617B6801221A777B681B6876
:10238C009B6903F00303002B03D0786800F098F9E5
:10239C0005E0786800F08BF9786800F09AF97B68B2
:1023AC0000221A77BB6803F00403002B20D0FB68D3
:1023BC0003F00403002B1BD07B681B686FF0040236
:1023CC001A617B6802221A777B681B689B6903F48D
:1023DC004073002B03D0786800F072F905E0786840
:1023EC0000F065F9786800F074F97B6800221A77C0
:1023FC00BB6803F00803002B20D0FB6803F0080334
:10240C00002B1BD07B681B686FF008021A617B687D
:10241C0004221A777B681B68DB6903F00303002B2B
:10242C0003D0786800F04CF905E0786800F03FF9CB
:10243C00786800F04EF97B6800221A77BB6803F0CD
:10244C001003002B20D0FB6803F01003002B1BD0D3
:10245C007B681B686FF010021A617B6808221A7780
:10246C007B681B68DB6903F44073002B03D078682E
:10247C0000F026F905E0786800F019F9786800F0AA
:10248C0028F97B6800221A77BB6803F00103002B44
:10249C000CD0FB6803F00103002B07D07B681B6892
:1024AC006FF001021A617868FEF71EFEBB6803F03C
:1024BC008003002B0CD0FB6803F08003002B07D0AB
:1024CC007B681B686FF080021A61786800F06FFA05
:1024DC00BB6803F04003002B0CD0FB6803F04003F7
:1024EC00002B07D07B681B686FF040021A6178687C
:1024FC0000F0F8F8BB6803F02003002B0CD0FB684D
:10250C0003F02003002B07D07B681B686FF02002C0
:10251C001A61786800F042FA00BF1037BD4680BDE2
:10252C0080B584B000AF786039600023FB737B68A2
:10253C0093F83C30012B01D10223B4E07B680122DB
:10254C0083F83C207B68022283F83D207B681B6863
:10255C009B68BB60BB6823F07703BB60BB6823F44C
:10256C007F43BB607B681B68BA689A603B681B68DA
:10257C00B3F5005F3ED0B3F5005F00F28780B3F592
:10258C00805F00F08680B3F5805F7FD8702B1AD007
:10259C00702B7BD8602B50D0602B77D8502B3CD035
:1025AC00502B73D8402B58D0402B6FD8302B64D085
:1025BC00302B6BD8202B60D0202B67D8002B5CD015
:1025CC00102B5AD062E07B6818683B6899683B68AE
:1025DC005A683B68DB6800F06AF97B681B689B688B
:1025EC00BB60BB6843F07703BB607B681B68BA6851
:1025FC009A604FE07B6818683B6899683B685A683A
:10260C003B68DB6800F053F97B681B689A687B6851
:10261C001B6842F480429A603CE07B6818683B6817
:10262C0059683B68DB681A4600F0CAF87B681B687F
:10263C005021184600F021F92CE07B6818683B68A3
:10264C0059683B68DB681A4600F0E8F87B681B6841
:10265C006021184600F011F91CE07B6818683B6893
:10266C0059683B68DB681A4600F0AAF87B681B685F
:10267C004021184600F001F90CE07B681A683B68B1
:10268C001B681946104600F0F8F803E00123FB73B1
:10269C0000E000BF7B68012283F83D207B680022AC
:1026AC0083F83C20FB7B18461037BD4680BD80B4B8
:1026BC0083B000AF786000BF0C37BD4680BC70475C
:1026CC0080B483B000AF786000BF0C37BD4680BCCF
:1026DC00704780B483B000AF786000BF0C37BD4644
:1026EC0080BC704780B483B000AF786000BF0C37FB
:1026FC00BD4680BC7047000080B485B000AF7860E8
:10270C0039607B681B68FB607B682B4A934207D05F
:10271C007B68B3F1804F03D07B68284A934208D181
:10272C00FB6823F07003FB603B685B68FA6813433B
:10273C00FB607B68204A934207D07B68B3F1804FE3
:10274C0003D07B681D4A934208D1FB6823F4407385
:10275C00FB603B68DB68FA681343FB60FB6823F0A3
:10276C0080023B685B691343FB607B68FA681A6004
:10277C003B689A687B68DA623B681A687B689A6285
:10278C007B680D4A934203D13B681A697B681A63D4
:10279C007B6801225A617B681B6903F00103002BE3
:1027AC0005D07B681B6923F001027B681A6100BFAE
:1027BC001437BD4680BC7047002C0140000400401B
:1027CC0080B487B000AFF860B9607A60FB681B6AB0
:1027DC007B61FB681B6A23F00102FB681A62FB68D1
:1027EC009B693B613B6923F0F0033B617B681B01F8
:1027FC003A6913433B617B6923F00A037B617A6975
:10280C00BB6813437B61FB683A699A61FB687A6920
:10281C001A6200BF1C37BD4680BC704780B487B0BD
:10282C0000AFF860B9607A60FB681B6A7B61FB687B
:10283C001B6A23F01002FB681A62FB689B693B6100
:10284C003B6923F470433B617B681B033A69134378
:10285C003B617B6923F0A0037B61BB681B017A6938
:10286C0013437B61FB683A699A61FB687A691A6267
:10287C0000BF1C37BD4680BC704780B485B000AF2C
:10288C00786039607B689B68FB60FB6823F07003A1
:10289C00FB603A68FB68134343F00703FB607B68FB
:1028AC00FA689A6000BF1437BD4680BC704780B48C
:1028BC0087B000AFF860B9607A603B60FB689B68DA
:1028CC007B617B6923F47F437B613B681A027B68E5
:1028DC001A43BB6813437A6913437B61FB687A69BB
:1028EC009A6000BF1C37BD4680BC704780B485B071
:1028FC0000AF786039607B6893F83C30012B01D1D4
:10290C00022341E07B68012283F83C207B68022291
:10291C0083F83D207B681B685B68FB607B681B68E9
:10292C009B68BB60FB6823F07003FB603B681B6813
:10293C00FA681343FB607B681B68FA685A607B6813
:10294C001B68144A934209D07B681B68B3F1804F13
:10295C0004D07B681B68104A93420CD1BB6823F0EF
:10296C008003BB603B685B68BA681343BB607B68E1
:10297C001B68BA689A607B68012283F83D207B68EB
:10298C00002283F83C20002318461437BD4680BC37
:10299C00704700BF002C01400004004080B483B09D
:1029AC0000AF786000BF0C37BD4680BC704780B468
:1029BC0083B000AF786000BF0C37BD4680BC704759
:1029CC0070B500260C4D0D4C641BA410A64209D109
:1029DC0000F022F800260A4D0A4C641BA410A642F3
:1029EC0005D170BD55F8043B98470136EEE755F814
:1029FC00043B98470136F2E7602A0008602A000879
:102A0C00602A0008642A000803460244934200D15D
:102A1C00704703F8011BF9E7F8B500BFF8BC08BC18
:102A2C009E467047F8B500BFF8BC08BC9E46704780
:102A3C000000000000000000010203040607080962
:102A4C0002030405060708090A0B0C0D0E0F1010E3
:042A5C000102000073
:042A60003101000838
:042A64000D01000858
:102A6800000000000000000000000000000000005E
:102A7800010000000100000001000000010000004A
:102A8800010000000100000001000000010000003A
:102A9800010000000100000001000000010000002A
:102AA8006400000000000000000801400008014028
:102AB80000080140000000000200000004000000BF
:102AC800080000000A0000000500000003000000E4
:102AD80002000000010000000200000003000000E6
:102AE800040000000A00000000127A001000000034
:042AF80001000000D9
:04000005080013AD2F
:00000001FF
